{
  "_format": "hh-sol-artifact-1",
  "contractName": "EventfulDataEdge",
  "sourceName": "contracts/EventfulDataEdge.sol",
  "abi": [
    {
      "inputs": [
        {
          "internalType": "address",
          "name": "_entryPoint",
          "type": "address"
        }
      ],
      "stateMutability": "nonpayable",
      "type": "constructor"
    },
    {
      "anonymous": false,
      "inputs": [
        {
          "indexed": false,
          "internalType": "bytes",
          "name": "data",
          "type": "bytes"
        }
      ],
      "name": "Log",
      "type": "event"
    },
    {
      "stateMutability": "payable",
      "type": "fallback"
    },
    {
      "inputs": [],
      "name": "entryPoint",
      "outputs": [
        {
          "internalType": "address",
          "name": "",
          "type": "address"
        }
      ],
      "stateMutability": "view",
      "type": "function"
    },
    {
      "inputs": [],
      "name": "owner",
      "outputs": [
        {
          "internalType": "address",
          "name": "",
          "type": "address"
        }
      ],
      "stateMutability": "view",
      "type": "function"
    },
    {
      "inputs": [
        {
          "internalType": "address",
          "name": "_newEntryPoint",
          "type": "address"
        }
      ],
      "name": "setEntryPoint",
      "outputs": [],
      "stateMutability": "nonpayable",
      "type": "function"
    },
    {
      "inputs": [
        {
          "internalType": "address",
          "name": "_newOwner",
          "type": "address"
        }
      ],
      "name": "transferOwnership",
      "outputs": [],
      "stateMutability": "nonpayable",
      "type": "function"
    },
    {
      "stateMutability": "payable",
      "type": "receive"
    }
  ],
  "bytecode": "0x608060405234801561000f575f80fd5b5060405161044438038061044483398101604081905261002e916100aa565b6001600160a01b03811661007d5760405162461bcd60e51b8152602060048201526012602482015271125b9d985b1a5908195b9d1c9e541bda5b9d60721b604482015260640160405180910390fd5b5f80546001600160a01b039092166001600160a01b031992831617905560018054909116331790556100d7565b5f602082840312156100ba575f80fd5b81516001600160a01b03811681146100d0575f80fd5b9392505050565b610360806100e45f395ff3fe608060405260043610610042575f3560e01c8063584465f2146100d45780638da5cb5b146100f5578063b0d691fe14610130578063f2fde38b1461014e57610049565b3661004957005b5f546001600160a01b031633146100995760405162461bcd60e51b815260206004820152600f60248201526e13db9b1e48115b9d1c9e541bda5b9d608a1b60448201526064015b60405180910390fd5b7fafabcf2dd47e06a477a89e49c03f8ebe8e0a7e94f775b25bbb24227c9d0110b25f366040516100ca9291906102cf565b60405180910390a1005b3480156100df575f80fd5b506100f36100ee3660046102fd565b61016d565b005b348015610100575f80fd5b50600154610114906001600160a01b031681565b6040516001600160a01b03909116815260200160405180910390f35b34801561013b575f80fd5b505f54610114906001600160a01b031681565b348015610159575f80fd5b506100f36101683660046102fd565b610220565b6001546001600160a01b031633146101b45760405162461bcd60e51b815260206004820152600a60248201526927b7363c9037bbb732b960b11b6044820152606401610090565b6001600160a01b0381166101ff5760405162461bcd60e51b8152602060048201526012602482015271125b9d985b1a5908195b9d1c9e541bda5b9d60721b6044820152606401610090565b5f80546001600160a01b0319166001600160a01b0392909216919091179055565b6001546001600160a01b031633146102675760405162461bcd60e51b815260206004820152600a60248201526927b7363c9037bbb732b960b11b6044820152606401610090565b6001600160a01b0381166102ad5760405162461bcd60e51b815260206004820152600d60248201526c24b73b30b634b21037bbb732b960991b6044820152606401610090565b600180546001600160a01b0319166001600160a01b0392909216919091179055565b60208152816020820152818360408301375f818301604090810191909152601f909201601f19160101919050565b5f6020828403121561030d575f80fd5b81356001600160a01b0381168114610323575f80fd5b939250505056fea2646970667358221220a8f12c7af45ef626f45f3ebcef519cea95cf1e4b3fa6c65debb9503acadbd06164736f6c63430008180033",
  "linkReferences": {},
  "deployedLinkReferences": {}
}